{
  "contractName": "Deed",
  "abi": [
    {
      "inputs": [
        {
          "internalType": "address",
          "name": "_lawyer",
          "type": "address"
        },
        {
          "internalType": "address payable",
          "name": "_beneficiary",
          "type": "address"
        },
        {
          "internalType": "uint256",
          "name": "fromNow",
          "type": "uint256"
        }
      ],
      "stateMutability": "payable",
      "type": "constructor",
      "payable": true
    },
    {
      "inputs": [],
      "name": "beneficiary",
      "outputs": [
        {
          "internalType": "address payable",
          "name": "",
          "type": "address"
        }
      ],
      "stateMutability": "view",
      "type": "function",
      "constant": true
    },
    {
      "inputs": [],
      "name": "earliest",
      "outputs": [
        {
          "internalType": "uint256",
          "name": "",
          "type": "uint256"
        }
      ],
      "stateMutability": "view",
      "type": "function",
      "constant": true
    },
    {
      "inputs": [],
      "name": "lawyer",
      "outputs": [
        {
          "internalType": "address",
          "name": "",
          "type": "address"
        }
      ],
      "stateMutability": "view",
      "type": "function",
      "constant": true
    },
    {
      "inputs": [],
      "name": "balanceOf",
      "outputs": [
        {
          "internalType": "uint256",
          "name": "",
          "type": "uint256"
        }
      ],
      "stateMutability": "view",
      "type": "function",
      "constant": true
    },
    {
      "inputs": [],
      "name": "withdraw",
      "outputs": [],
      "stateMutability": "nonpayable",
      "type": "function"
    }
  ],
  "bytecode": "0x60806040526040516106bb3803806106bb83398181016040528101906100259190610197565b826000806101000a81548173ffffffffffffffffffffffffffffffffffffffff021916908373ffffffffffffffffffffffffffffffffffffffff16021790555081600160006101000a81548173ffffffffffffffffffffffffffffffffffffffff021916908373ffffffffffffffffffffffffffffffffffffffff16021790555080426100b29190610219565b60028190555050505061024d565b600080fd5b600073ffffffffffffffffffffffffffffffffffffffff82169050919050565b60006100f0826100c5565b9050919050565b610100816100e5565b811461010b57600080fd5b50565b60008151905061011d816100f7565b92915050565b600061012e826100c5565b9050919050565b61013e81610123565b811461014957600080fd5b50565b60008151905061015b81610135565b92915050565b6000819050919050565b61017481610161565b811461017f57600080fd5b50565b6000815190506101918161016b565b92915050565b6000806000606084860312156101b0576101af6100c0565b5b60006101be8682870161010e565b93505060206101cf8682870161014c565b92505060406101e086828701610182565b9150509250925092565b7f4e487b7100000000000000000000000000000000000000000000000000000000600052601160045260246000fd5b600061022482610161565b915061022f83610161565b9250828201905080821115610247576102466101ea565b5b92915050565b61045f8061025c6000396000f3fe608060405234801561001057600080fd5b50600436106100575760003560e01c806338af3eed1461005c5780633bfb6e311461007a5780633ccfd60b146100985780635dd65d3b146100a2578063722713f7146100c0575b600080fd5b6100646100de565b60405161007191906102b5565b60405180910390f35b610082610104565b60405161008f91906102f1565b60405180910390f35b6100a0610128565b005b6100aa610266565b6040516100b79190610325565b60405180910390f35b6100c861026c565b6040516100d59190610325565b60405180910390f35b600160009054906101000a900473ffffffffffffffffffffffffffffffffffffffff1681565b60008054906101000a900473ffffffffffffffffffffffffffffffffffffffff1681565b60008054906101000a900473ffffffffffffffffffffffffffffffffffffffff1673ffffffffffffffffffffffffffffffffffffffff163373ffffffffffffffffffffffffffffffffffffffff16146101b6576040517f08c379a00000000000000000000000000000000000000000000000000000000081526004016101ad9061039d565b60405180910390fd5b6002544210156101fb576040517f08c379a00000000000000000000000000000000000000000000000000000000081526004016101f290610409565b60405180910390fd5b600160009054906101000a900473ffffffffffffffffffffffffffffffffffffffff1673ffffffffffffffffffffffffffffffffffffffff166108fc479081150290604051600060405180830381858888f19350505050158015610263573d6000803e3d6000fd5b50565b60025481565b600047905090565b600073ffffffffffffffffffffffffffffffffffffffff82169050919050565b600061029f82610274565b9050919050565b6102af81610294565b82525050565b60006020820190506102ca60008301846102a6565b92915050565b60006102db82610274565b9050919050565b6102eb816102d0565b82525050565b600060208201905061030660008301846102e2565b92915050565b6000819050919050565b61031f8161030c565b82525050565b600060208201905061033a6000830184610316565b92915050565b600082825260208201905092915050565b7f4c6177796572204f6e6c792063616e20646f2069740000000000000000000000600082015250565b6000610387601583610340565b915061039282610351565b602082019050919050565b600060208201905081810360008301526103b68161037a565b9050919050565b7f546f6f206561726c790000000000000000000000000000000000000000000000600082015250565b60006103f3600983610340565b91506103fe826103bd565b602082019050919050565b60006020820190508181036000830152610422816103e6565b905091905056fea26469706673582212201c4471364bde5862e5356b948a2021900d3a1570299e77b09d3a9a359d6d448c64736f6c63430008110033",
  "immutableReferences": {},
  "source": "\r\npragma solidity ^0.8.17;\r\n\r\ncontract Deed{\r\n    address public lawyer;\r\n    address payable public beneficiary;\r\n    uint public earliest;\r\n\r\n    //fromNow in seconds\r\n    constructor(address _lawyer, address payable _beneficiary, uint fromNow) payable{\r\n        lawyer  = _lawyer;\r\n        beneficiary = _beneficiary;\r\n        earliest = block.timestamp + fromNow;\r\n    }\r\n\r\n    function balanceOf() public view returns (uint){\r\n        return address(this).balance;\r\n    }\r\n\r\n    function withdraw() public {\r\n        require(msg.sender == lawyer, \"Lawyer Only can do it\");        \r\n        require(block.timestamp >= earliest, \"Too early\");\r\n        beneficiary.transfer(address(this).balance);\r\n    }\r\n\r\n}",
  "sourcePath": "C:\\Users\\ITAUTEC\\Desktop\\REPOS\\EATTHEBLOCKS\\PROJETOS\\8-deed\\contracts\\Deed.sol",
  "compiler": {
    "name": "solc",
    "version": "0.8.17+commit.8df45f5f.Emscripten.clang"
  },
  "schemaVersion": "3.4.10",
  "updatedAt": "2022-12-06T18:55:22.884Z",
  "networkType": "ethereum",
  "devdoc": {
    "kind": "dev",
    "methods": {},
    "version": 1
  },
  "userdoc": {
    "kind": "user",
    "methods": {},
    "version": 1
  }
}